{
  "_format": "hh-sol-artifact-1",
  "contractName": "Escrow",
  "sourceName": "contracts/Escrow.sol",
  "abi": [
    {
      "inputs": [
        {
          "internalType": "address payable",
          "name": "_seller",
          "type": "address"
        },
        {
          "internalType": "address",
          "name": "_escrowAgent",
          "type": "address"
        }
      ],
      "stateMutability": "nonpayable",
      "type": "constructor"
    },
    {
      "inputs": [],
      "name": "buyer",
      "outputs": [
        {
          "internalType": "address payable",
          "name": "",
          "type": "address"
        }
      ],
      "stateMutability": "view",
      "type": "function"
    },
    {
      "inputs": [],
      "name": "confirmDelivery",
      "outputs": [],
      "stateMutability": "nonpayable",
      "type": "function"
    },
    {
      "inputs": [],
      "name": "currentState",
      "outputs": [
        {
          "internalType": "enum Escrow.EscrowState",
          "name": "",
          "type": "uint8"
        }
      ],
      "stateMutability": "view",
      "type": "function"
    },
    {
      "inputs": [],
      "name": "depositFunds",
      "outputs": [],
      "stateMutability": "payable",
      "type": "function"
    },
    {
      "inputs": [],
      "name": "escrowAgent",
      "outputs": [
        {
          "internalType": "address",
          "name": "",
          "type": "address"
        }
      ],
      "stateMutability": "view",
      "type": "function"
    },
    {
      "inputs": [],
      "name": "raiseDispute",
      "outputs": [],
      "stateMutability": "nonpayable",
      "type": "function"
    },
    {
      "inputs": [
        {
          "internalType": "bool",
          "name": "refundBuyer",
          "type": "bool"
        }
      ],
      "name": "resolveDispute",
      "outputs": [],
      "stateMutability": "nonpayable",
      "type": "function"
    },
    {
      "inputs": [],
      "name": "seller",
      "outputs": [
        {
          "internalType": "address payable",
          "name": "",
          "type": "address"
        }
      ],
      "stateMutability": "view",
      "type": "function"
    }
  ],
  "bytecode": "0x60806040523480156200001157600080fd5b50604051620010c3380380620010c38339818101604052810190620000379190620001de565b33600060016101000a81548173ffffffffffffffffffffffffffffffffffffffff021916908373ffffffffffffffffffffffffffffffffffffffff16021790555081600160006101000a81548173ffffffffffffffffffffffffffffffffffffffff021916908373ffffffffffffffffffffffffffffffffffffffff16021790555080600260006101000a81548173ffffffffffffffffffffffffffffffffffffffff021916908373ffffffffffffffffffffffffffffffffffffffff16021790555060008060006101000a81548160ff0219169083600381111562000122576200012162000225565b5b0217905550505062000254565b600080fd5b600073ffffffffffffffffffffffffffffffffffffffff82169050919050565b6000620001618262000134565b9050919050565b620001738162000154565b81146200017f57600080fd5b50565b600081519050620001938162000168565b92915050565b6000620001a68262000134565b9050919050565b620001b88162000199565b8114620001c457600080fd5b50565b600081519050620001d881620001ad565b92915050565b60008060408385031215620001f857620001f76200012f565b5b6000620002088582860162000182565b92505060206200021b85828601620001c7565b9150509250929050565b7f4e487b7100000000000000000000000000000000000000000000000000000000600052602160045260246000fd5b610e5f80620002646000396000f3fe60806040526004361061007b5760003560e01c80637150d8ae1161004e5780637150d8ae1461010457806389e1e82a1461012f578063e1f6c09814610158578063e2c41dbc146101835761007b565b806308551a53146100805780630c3f6acf146100ab5780635e10177b146100d65780636daa2d44146100ed575b600080fd5b34801561008c57600080fd5b5061009561018d565b6040516100a291906108f3565b60405180910390f35b3480156100b757600080fd5b506100c06101b3565b6040516100cd9190610985565b60405180910390f35b3480156100e257600080fd5b506100eb6101c4565b005b3480156100f957600080fd5b5061010261035d565b005b34801561011057600080fd5b506101196104e5565b60405161012691906108f3565b60405180910390f35b34801561013b57600080fd5b50610156600480360381019061015191906109dd565b61050b565b005b34801561016457600080fd5b5061016d610719565b60405161017a9190610a2b565b60405180910390f35b61018b61073f565b005b600160009054906101000a900473ffffffffffffffffffffffffffffffffffffffff1681565b60008054906101000a900460ff1681565b600060019054906101000a900473ffffffffffffffffffffffffffffffffffffffff1673ffffffffffffffffffffffffffffffffffffffff163373ffffffffffffffffffffffffffffffffffffffff1614610254576040517f08c379a000000000000000000000000000000000000000000000000000000000815260040161024b90610aa3565b60405180910390fd5b600160038111156102685761026761090e565b5b60008054906101000a900460ff1660038111156102885761028761090e565b5b146102c8576040517f08c379a00000000000000000000000000000000000000000000000000000000081526004016102bf90610b0f565b60405180910390fd5b60026000806101000a81548160ff021916908360038111156102ed576102ec61090e565b5b0217905550600160009054906101000a900473ffffffffffffffffffffffffffffffffffffffff1673ffffffffffffffffffffffffffffffffffffffff166108fc479081150290604051600060405180830381858888f1935050505015801561035a573d6000803e3d6000fd5b50565b600160038111156103715761037061090e565b5b60008054906101000a900460ff1660038111156103915761039061090e565b5b146103d1576040517f08c379a00000000000000000000000000000000000000000000000000000000081526004016103c890610ba1565b60405180910390fd5b600060019054906101000a900473ffffffffffffffffffffffffffffffffffffffff1673ffffffffffffffffffffffffffffffffffffffff163373ffffffffffffffffffffffffffffffffffffffff16148061047a5750600160009054906101000a900473ffffffffffffffffffffffffffffffffffffffff1673ffffffffffffffffffffffffffffffffffffffff163373ffffffffffffffffffffffffffffffffffffffff16145b6104b9576040517f08c379a00000000000000000000000000000000000000000000000000000000081526004016104b090610c33565b60405180910390fd5b60036000806101000a81548160ff021916908360038111156104de576104dd61090e565b5b0217905550565b600060019054906101000a900473ffffffffffffffffffffffffffffffffffffffff1681565b600260009054906101000a900473ffffffffffffffffffffffffffffffffffffffff1673ffffffffffffffffffffffffffffffffffffffff163373ffffffffffffffffffffffffffffffffffffffff161461059b576040517f08c379a000000000000000000000000000000000000000000000000000000000815260040161059290610cc5565b60405180910390fd5b6003808111156105ae576105ad61090e565b5b60008054906101000a900460ff1660038111156105ce576105cd61090e565b5b1461060e576040517f08c379a000000000000000000000000000000000000000000000000000000000815260040161060590610d31565b60405180910390fd5b801561068257600060019054906101000a900473ffffffffffffffffffffffffffffffffffffffff1673ffffffffffffffffffffffffffffffffffffffff166108fc479081150290604051600060405180830381858888f1935050505015801561067c573d6000803e3d6000fd5b506106ec565b600160009054906101000a900473ffffffffffffffffffffffffffffffffffffffff1673ffffffffffffffffffffffffffffffffffffffff166108fc479081150290604051600060405180830381858888f193505050501580156106ea573d6000803e3d6000fd5b505b60026000806101000a81548160ff021916908360038111156107115761071061090e565b5b021790555050565b600260009054906101000a900473ffffffffffffffffffffffffffffffffffffffff1681565b600060019054906101000a900473ffffffffffffffffffffffffffffffffffffffff1673ffffffffffffffffffffffffffffffffffffffff163373ffffffffffffffffffffffffffffffffffffffff16146107cf576040517f08c379a00000000000000000000000000000000000000000000000000000000081526004016107c690610aa3565b60405180910390fd5b600060038111156107e3576107e261090e565b5b60008054906101000a900460ff1660038111156108035761080261090e565b5b14610843576040517f08c379a000000000000000000000000000000000000000000000000000000000815260040161083a90610d9d565b60405180910390fd5b60003411610886576040517f08c379a000000000000000000000000000000000000000000000000000000000815260040161087d90610e09565b60405180910390fd5b60016000806101000a81548160ff021916908360038111156108ab576108aa61090e565b5b0217905550565b600073ffffffffffffffffffffffffffffffffffffffff82169050919050565b60006108dd826108b2565b9050919050565b6108ed816108d2565b82525050565b600060208201905061090860008301846108e4565b92915050565b7f4e487b7100000000000000000000000000000000000000000000000000000000600052602160045260246000fd5b6004811061094e5761094d61090e565b5b50565b600081905061095f8261093d565b919050565b600061096f82610951565b9050919050565b61097f81610964565b82525050565b600060208201905061099a6000830184610976565b92915050565b600080fd5b60008115159050919050565b6109ba816109a5565b81146109c557600080fd5b50565b6000813590506109d7816109b1565b92915050565b6000602082840312156109f3576109f26109a0565b5b6000610a01848285016109c8565b91505092915050565b6000610a15826108b2565b9050919050565b610a2581610a0a565b82525050565b6000602082019050610a406000830184610a1c565b92915050565b600082825260208201905092915050565b7f4f6e6c79207468652062757965722063616e2063616c6c20746869732e000000600082015250565b6000610a8d601d83610a46565b9150610a9882610a57565b602082019050919050565b60006020820190508181036000830152610abc81610a80565b9050919050565b7f43616e6e6f7420636f6e6669726d2064656c6976657279207965742e00000000600082015250565b6000610af9601c83610a46565b9150610b0482610ac3565b602082019050919050565b60006020820190508181036000830152610b2881610aec565b9050919050565b7f43616e6e6f74207261697365206469737075746520617420746869732073746160008201527f67652e0000000000000000000000000000000000000000000000000000000000602082015250565b6000610b8b602383610a46565b9150610b9682610b2f565b604082019050919050565b60006020820190508181036000830152610bba81610b7e565b9050919050565b7f4f6e6c79206275796572206f722073656c6c65722063616e207261697365206160008201527f20646973707574652e0000000000000000000000000000000000000000000000602082015250565b6000610c1d602983610a46565b9150610c2882610bc1565b604082019050919050565b60006020820190508181036000830152610c4c81610c10565b9050919050565b7f4f6e6c792074686520657363726f77206167656e742063616e2063616c6c207460008201527f6869732e00000000000000000000000000000000000000000000000000000000602082015250565b6000610caf602483610a46565b9150610cba82610c53565b604082019050919050565b60006020820190508181036000830152610cde81610ca2565b9050919050565b7f4e6f206469737075746520746f207265736f6c76652e00000000000000000000600082015250565b6000610d1b601683610a46565b9150610d2682610ce5565b602082019050919050565b60006020820190508181036000830152610d4a81610d0e565b9050919050565b7f416c726561647920706169642e00000000000000000000000000000000000000600082015250565b6000610d87600d83610a46565b9150610d9282610d51565b602082019050919050565b60006020820190508181036000830152610db681610d7a565b9050919050565b7f46756e6473206d7573742062652067726561746572207468616e20302e000000600082015250565b6000610df3601d83610a46565b9150610dfe82610dbd565b602082019050919050565b60006020820190508181036000830152610e2281610de6565b905091905056fea2646970667358221220faad14cc9d7d8a5031eec22089498a9b13246d40cdea09de1a94d12854d6fb3964736f6c63430008180033",
  "linkReferences": {},
  "deployedLinkReferences": {}
}